:0A0000000C94BD000C9400000C9459
:10000A0000000C9400000C9400000C9400000C9466
:10001A0000000C9400000C9400000C9400000C9456
:10002A0000000C9400000C9400000C9400000C9446
:10003A0000000C9400000C9400000C9400000C9436
:10004A0030010C9415010C940000022B873D3000FE
:10005A0000023000003000000000534554204920BF
:10006A00203A2020202020206D41002A3A2C00230B
:10007A003A436C720041525553203D2000256420BA
:10008A006D4100534554204B70203A200020202017
:10009A00202020200020204B70203D200025302EDB
:1000AA00326600534554204B69203A200020204BE9
:1000BA0069203D20002020534F465420535441527A
:1000CA0054455220200020204D4F544F52203120B9
:1000DA004641534120200041525553203A200050B6
:1000EA00574D20203A2000202020202020202000C8
:1000FA0025640053656E73204143532025302E3109
:10010A00667C50574D202564000D0A0080C02D4E94
:10011A00414E000001002D4E414E00494E4600005E
:10012A0004009D0254000100D50258000800600234
:10013A006D00080068029700080070029700080026
:10014A007802E10008008002E90009008802F10053
:10015A0009009102F10003009A0213010A00040047
:10016A005A000200F10216010100F8021E01000005
:10017A00F894EE27ECBBF1E0FBBFEBBFE5BFF8E17B
:10018A00F1BDE1BD8DE0A2E0BB27ED938A95E9F7C9
:10019A0080E094E0A0E6ED930197E9F7EAE2F1E066
:1001AA0085919591009761F0A591B591059015906B
:1001BA00BF01F00105900D920197E1F7FB01F0CF25
:1001CA00EFE5EDBFE4E0EEBFC0E6D2E00C94B20189
:1001DA001A937724E5E07E1638F4B29902C0739434
:1001EA0002C0E4E67E2EF6CFE4E6E71541F0D3BC82
:1001FA001FE2113010F01150FCCFE0E0E3BD19917D
:10020A000895AA93E881E064E7B985E28A95F1F74F
:10021A00369A349BFECF349AE4B1F5B10C94470375
:10022A006A937A93AA93BA93EA93FA93EFB7EA9303
:10023A00A1EAB2E00E94630BEF5FFF4F6F4F7F4F5F
:10024A000E94680BE991EFBFF991E991B991A991DF
:10025A0079916991189518952497F894E091A102DB
:10026A00F091A2026091A3027091A4020E94DC079D
:10027A0078940E94DF0716C00E94E2072A30E0E065
:10028A003E073CF4A0E0BDDF0E0F1F1F2F5F3F4F5C
:10029A00F5CFD801EAE0F0E00E94050B2F01F20148
:1002AA000E94A00B2496089524970E94E2072A3000
:1002BA00E0E03E074CF4A0E0A4DFE419F5090E0FD4
:1002CA001F1F2F5F3F4FF3CFF8010E94EB07DF019B
:1002DA00CB010E94F0070E945A0ADF01CB01E0E03D
:1002EA00F0EC6FE774E40E945A0AA0E0B0E080EAFA
:1002FA0090E40E940C0ADF01CB01E0919D02F0918B
:10030A009E0260919F027091A0020E945A0A0E9466
:10031A00F5070E94FA070E94A00B28960895AA934F
:10032A005D9BFECFE881ECB90C944703BA93AA937C
:10033A001A9310E0A981BA81EE27A10FBE1FEC9192
:10034A00E03049F0A981BA81EE27A10FBE1FAC9116
:10035A00E6DF1F5FEFCF0C94170364970E94FF0735
:10036A00E0E0EA83EB83EEE0EBBBE0EFEABBE4E03C
:10037A00E8BBE0E0E7BBE5BBE4BBE7E0E2BBE8EFF4
:10038A00E1BBEBE0E3BFE0E0E2BFECEAECBFE0E0B8
:10039A00EFBDEEBDEDBDECBDE7BDE6BDEBBDEABD13
:1003AA00E9BDE8BDE2BDE9E6E5BDE0E0E4BDE3BDE7
:1003BA00EBB7E062EBBFE0E0E5BFE0E4E4BFE0E218
:1003CA00EABFE2E0E9BFE0E0EBB9E8E0EAB9E6E873
:1003DA00E0BDE0E0E0BDE7E4E9B9E0E8E8B9E0E083
:1003EA00E0BFE0E4E7B9E4E8E6B9E0E0EDB9E6BF8A
:1003FA007894A0E11AD1E0E00E940308AFEBB0E0E4
:10040A0001D1E0E00E940708A0EDB0E0FBD0A0ED2A
:10041A00B7E00E940C0930DFB8D0E8ECDE2EB5D088
:10042A00E0E00E940308A8E7B2E0DDD0E0E00E9425
:10043A000708A0E8B2E0D7D0CBDE0EDFDF01CB01A0
:10044A00E091AD02F091AE026091AF027091B002FC
:10045A000E94C30AA83EE3E0BE07E0E08E07E0E0A0
:10046A009E0710F40C949702F7DEE093AD02F09326
:10047A00AE026093AF027093B002EAEFDE1628F084
:10048A00AFEBB2E00E940B0802C0EAE0DE0E0CDF1E
:10049A000E94DC07A091BF02B091C002149734F009
:1004AA00DD24E0E0E093BF02E093C002E7E00E94AF
:1004BA000308A8E8B2E097D0E7E00E940708A1E99C
:1004CA00B2E091D0E7E00E9403080E9411080E945E
:1004DA00FA070E941A08E7E00E9407080E9411081A
:1004EA00ED2DFF27662777270E941A08FE0134960A
:1004FA00FA93EA93EDEFF0E0FA93EA930E94FA078F
:10050A000E947C0BED2DFF27662777270E947C0B24
:10051A0088E00E9475062C96DE01149607DFAAE988
:10052A00B2E004DF89CFFFCFAA93E5B3EF70AE2F15
:10053A00E881E07FEA2BE5BB87E08A95F1F7AA9A82
:10054A0082E18A95F1F7AA9882E18A95F1F79AC031
:10055A00AA93A881E9DFE881E295E883A881E4DF2C
:10056A0088EB8A95F1F78EC0AA93E881F0E0EF5004
:10057A00FD4FE081A981AE0FEBDFE981E093F5023F
:10058A00E881E093F60222960895A2E00E942408E8
:10059A00ACE0DEDFA1E00E942408E0E0E093F6028E
:1005AA00E093F5020895AA93A881AA3031F0E09168
:1005BA00F702A091F502AE1760F0E0E0EA93A0918D
:1005CA00F602AF5FA093F602CFDFA881AA3009F442
:1005DA0059C0E091F502EF5FE093F502A89AA8816D
:1005EA00B7DFA8984FC0BA93AA931A93A981BA8180
:1005FA00ED91A983BA831E2FE03019F0A12FD3DF22
:10060A00F5CF10C0BA93AA931A93E981FA81319669
:10061A00E983FA833197E4911E2FE03019F0A12F74
:10062A00C2DFF3CF188123960895AA93E4B3E06F4B
:10063A00E4BBA29AA09AA19AAA98A898A998E88134
:10064A00E093F702E058E093F302E881E054E09384
:10065A00F402A4E1B0E00E940C090E942A080E9458
:10066A002A080E942A08A0E25FDF84E191E001974C
:10067A00F1F7A8E26DDFA4E06BDFA5E869DFA6E089
:10068A0067DF83DF21960895BA93AA931A930A9390
:10069A00AA81BB8112960E94590B309729F1AA812F
:1006AA00BB8114960E94590B8F01309761F002307A
:1006BA00E0E01E07C0F0F80131978F01AA81BB81E3
:1006CA001496ED93FC93AA81BB8112960E940B08A3
:1006DA003197AC81A083AA81BB810E94590BFF2369
:1006EA0012F00E940B0806C0AA81BB81EFEFFFEF50
:1006FA00ED93FC931981088125960895BA93AA93DC
:10070A0024970E94FF07E0E8EA83EFE3EB830E9465
:10071A00990BEE85FF85EF3FAFEFFA0749F4E885BD
:10072A00F985FA93EA93A8E1B1E00E94A906B8C054
:10073A00EF3FAFE7FA0749F4E885F985FA93EA93B8
:10074A00A9E1B1E00E94A906ABC0AB85A73010F0C1
:10075A00E6E0EB871B85E12F1150E03019F00E948B
:10076A003208F9CFEC85FD856E857F850E94930B53
:10077A0021F430E00E9432082EC03B850E943A08DC
:10078A0009F010F40C94D4030E9432080E943A082B
:10079A0028F00E9442080E944708F8CF0DC00E9424
:1007AA003A0840F40E9442080E9453080E945708DF
:1007BA003150F5CF0E943208EC85FD856E857F8524
:1007CA000E945C080E9457080E943A0820F00E9482
:1007DA0042080E94470810E0EB85E117A8F1AC81B6
:1007EA00BD818E819F810E9463080E945C08DF019F
:1007FA00CB010E94C5070E94F5070E94FA070E94D2
:10080A0042080E945A0A0E9449090E2F0E946A0849
:10081A000E947108FF27662777270E948209AC8108
:10082A00BD818E819F810E940C0A0E9442080E940B
:10083A0076080E945708E12F1F5FE03069F60E9490
:10084A006A08EEE2EC93C8CF0E947B083197AA852A
:10085A00A08330302CF43195A885B985EDE203C028
:10086A00A885B985EBE2EC930E947B080E947B087D
:10087A003197BF01A32FEAE00E94ED0AE05DDB0198
:10088A00EC930E947B083197BF01A32FEAE00E94F4
:10089A002F0BE05DDB01EC93A885B985E0E0EC93D2
:1008AA000E94A00B60960895BA93AA93EF97619756
:1008BA000E94970B10E0FE01E85AFF4F0190F08169
:1008CA00E02DE887F987FE01EA5AFF4F0190F0818F
:1008DA00E02DEE83FF83AE81BF81E0E0F0E0ED938F
:1008EA00FC93DE01A45ABF4F0E940B083197E49192
:1008FA002E2FE03011F40C946C06E12FE03039F41D
:10090A00253211F411E002C00E948108DFC1E130F2
:10091A00C1F4253219F40E948108D7C112E0E0E03F
:10092A00ED8B00E02D3211F401E0D0C12B3219F425
:10093A00EBE2ED8BCBC1203219F4E0E2ED8BC6C1BC
:10094A0002C0E23039F450E013E0203311F40068B9
:10095A00BDC102C0E33091F4203310F02A3308F00D
:10096A0007C0AAE05A9F502DE22FE0535E0FAEC196
:10097A0040E02E3211F414E0A9C10FC0E43099F41A
:10098A00203310F02A3308F008C00062AAE04A9F18
:10099A00402DE22FE0534E0F99C12C3619F4026014
:1009AA0015E094C104C0E53011F00C946B06E22FF7
:1009BA00E33659F40E9488080E948F080E9488082A
:1009CA00A481AA930E94960880C1E53411F0E53605
:1009DA0009F404C0E63611F00C943905FE01769646
:1009EA00EE87FF870E949C080E945D0B0E94A30865
:1009FA000E94A808AD85AA2322F0AD89AB3249F03E
:100A0A0017C00E94AA080E9416090E94A308EDE2D4
:100A1A00ED8B07FF05C0ED89EA930E94960808C08E
:100A2A00EE85FF853196EE87FF873197AD89A083E2
:100A3A0005FF46E0263651F40E94AA080E947C0B64
:100A4A004A93AB89BC890E94CF0609C00E94AA08B2
:100A5A000E947C0B4A932A93AC89BD894FDEFE0122
:100A6A0076960E94AF081EC0E33739F40E94A808A0
:100A7A000E94B7080E94AF080EC0E037C1F40E9476
:100A8A00A8080E94B708EE87FF87AE85BF850E9437
:100A9A00C2061E2F08600F77403011F0411708F088
:100AAA0001C0142F40E0E0E0EC8B30E06EC0E43689
:100ABA0011F0E93611F4046002C0E537A1F4EAE066
:100ACA00EC8B01FF08C0E0E0FAEC6AE97BE30E94E4
:100ADA00BC081AE023C0E0E1F7E260E070E00E949F
:100AEA00BC0815E01BC0E83511F4086004C0E837FB
:100AFA0011F00C946A06E0E1EC8B01FF08C0E0E01B
:100B0A00F0E060E070E10E94BC0818E007C0E0E095
:100B1A00F0E160E070E00E94BC0814E0403011F09F
:100B2A000F7701C041E001FF08C00E94A8080E9497
:100B3A009C0814960E945D0B0FC002FF07C00E941A
:100B4A00A8080E94B7080E94DA0A06C00E94A808EC
:100B5A000E94B70866277727EA87FB876C877D8715
:100B6A0002FF12C0AD85AA2342F40E94AA080E947D
:100B7A00CC0A0E94A308EDE2ED8BED89E03019F072
:100B8A001F5F4F5F01C00B7F342F00FD14C0151784
:100B9A0010F4351708F00FC007FF08C002FF04C0A1
:100BAA000B7F2D89115001C020E301C020E20E9471
:100BBA0081085150ECCF141790F4006102FF06C06F
:100BCA000E94C10809F0515011504150E0E3EA93E4
:100BDA000E949608503009F051504150ECCF312F05
:100BEA00EC89E030B9F43030A1F003FF06C0EE859D
:100BFA00FF852591EE87FF8705C0AE85BF852D91BC
:100C0A00AE87BF870E948108503009F05150315099
:100C1A00EACF51C00E94D3080E940A0B2E2F2A3015
:100C2A0030F003FF02C0295C01C0295A01C0205DCF
:100C3A0004FD21C0213360F4A889B9898A899B8976
:100C4A00A130E0E0BE07E0E08E07E0E09E0709F48D
:100C5A000BC0431740F4531710F000FF01C010C037
:100C6A0020E207FF08C020E3006102FF04C00E94DF
:100C7A00C10809F051500E948108503009F05150C2
:100C8A0031500E94D3080E943B0B0E94A308EC89B2
:100C9A00A889B9898A899B89FF27662777270E94AD
:100CAA000A0B0E94BC08E889F9896A897B890E9433
:100CBA00930B09F0AFCF00FF08C0503031F051500C
:100CCA00E0E2EA930E949608F8CF10E00ACEAE81DD
:100CDA00BF810E94590B0E949E0BEF966F96089552
:100CEA00FF92F82E26970E94990B0E94DC083097F3
:100CFA0019F4EFEFFFEF23C0DE0116960E94BF0A38
:100D0A008D010E94DC08EE83FF83E0E0E887E98733
:100D1A00DE011A960E94BF0A0E94590BFA93EA93BF
:100D2A001A930A93E9E4F3E0FA93EA93DE011A9636
:100D3A00BBDD9F01AE81BF81E0E0EC93F9010E9427
:100D4A00A00B2A96FF900895BA93AA93E991F99174
:100D5A00A991B991CD0105900D920020E1F7FC010E
:100D6A000895BA93AA93A991B991EE27FF276D9195
:100D7A00662311F03196FBCF0895BA93AA93AA2756
:100D8A00BB27E991F9910590002011F01196FBCF4C
:100D9A00FD010895BA93AA9324970E94FF07E0E001
:100DAA00EA83EFE3EB831A930A93EB85FC85EF3F23
:100DBA00AFEFFA0739F40E94E308A0E2B1E00E941B
:100DCA00A906A9C0EF3FAFE7FA0739F40E94E30882
:100DDA00A1E2B1E00E94A9069EC0AC85AA2362F4F2
:100DEA00E985FA856B857C850E9416090E94E808C8
:100DFA000E94ED08EDE2EC93A885A73010F0E6E03A
:100E0A00E8871885E12F1150E03039F00E94F40884
:100E1A000E9463080E94F908F5CF0E94FE080E940A
:100E2A00BC090E94E80810E0E0E0F0E060E87FE337
:100E3A000E94F9080E94FE080E949F0A88F00E94F8
:100E4A00F4080E9453080E94F9081F5F173238F00D
:100E5A000E94E308A5E2B1E00E94A9065CC0EACFBD
:100E6A00103029F40E94ED08E0E3EC9329C0E12F49
:100E7A001150E03029F10E94F4080E9463080E9490
:100E8A005C08DF01CB010E94C5070E94F9080E9495
:100E9A00FE080E945A0A0E9449090E2F0E94ED0874
:100EAA000E947108F0E00E94F4080E94EB070E9479
:100EBA000C0A0E9407090E9476080E94E808D7CF08
:100ECA00E885E03021F10E94ED08EEE2EC93E88536
:100EDA00E150E887EF5FD9F00E9407090E945308A2
:100EEA000E94E808E985FA856B857C850E94490994
:100EFA000E2F0E94ED080E947108F0E00E94070977
:100F0A000E94EB070E9476080E94E808E0CFAE81B3
:100F1A00BF81E0E0EC93198108812D9608950E9423
:100F2A00810B7B816A81F981E88177FB770F67FD05
:100F3A007160972F9E5781F078F0983190F4AA2724
:100F4A00BB27882708948795B795A7959A95D1F7CF
:100F5A00EA23FB23682305C0E8947727EE27FF27B7
:100F6A0066276F77769508F4606877F9A991B99141
:100F7A0089919991EA17FB076807790797FB089502
:100F8A000E94810B0E94720B0E9494070E94DC0748
:100F9A0019F40E94DF0709C0E6F70E94DF07A0E004
:100FAA00B0E080E89FE30E94B509249608950E9464
:100FBA00770B08950E946D0B08950E94990B00E02B
:100FCA0010E020E030E020E030E008950E94DA0AE4
:100FDA000E9482090895E0E0F0E060E271E4089579
:100FEA00EC83FD836E837F830895EC81FD816E819E
:100FFA007F810895E0E0E883E9830895EA93A0E019
:10100A000C94B902EA93A1E00C94B902ED91FD9116
:10101A003196FE93EE930895FE013496FA93EA937D
:10102A00EAEFF0E0FA93EA9308950E947C0B84E0D9
:10103A000E9475062896DE0114960C94F8020E9406
:10104A00AD02A3E0B0E00C940C09A0E30E9499025F
:10105A0084E191E00197F1F70895AC81BD818E8119
:10106A009F81B9DF0E940C0ABBCFBFDFAC85BD856B
:10107A008E859F850E949F0A0895AC85BD858E85C1
:10108A009F850895EDECFCEC6CEC7DE30E940C0A64
:10109A00EC87FD876E877F873F5F08959CDF0E94FC
:1010AA000C0A0895EC87FD876E877F870895A0E074
:1010BA00B0E080E09FE30E94BC090895EDECFCECEF
:1010CA006CEC7DE30E940C0A0895A885B9851196F7
:1010DA00A887B98711970895E02FE05DEC93E02F78
:1010EA0008950E94860B0E94B5090895E885F9853E
:1010FA003196E887F98708952A93AF81B885E985FB
:10110A00FA8509950895FE01E65AFF4F0190F0818C
:10111A00E02D08953497DE01A65ABF4FED93FC9354
:10112A000895AF81B885E985FA8509950895DE01A4
:10113A00A65ABF4F0D90BC91A02D0895EA87FB8750
:10114A006C877D870895DFDFE5CFEA85FB856C85AF
:10115A007D850895EE87FF87AE85BF850E94B60616
:10116A001E2F0895E4DF14960E94590B0895E88B08
:10117A00F98B6A8B7B8B08950B7FED89EA93DE01ED
:10118A00A95ABF4F0D90BC91A02DFE01E75AFF4FFF
:10119A000190F081E02D099550300895E889F98988
:1011AA006A897B89AA85BB858C859D850895DE0120
:1011BA001C960E94BF0A0E94590B0895EE81FF8176
:1011CA00FA93EA930895E987FA876B877C870895EB
:1011DA00AE81BF811196AE83BF8311970895AA810C
:1011EA00BB818C819D810895EA83FB836C837D8317
:1011FA000895EA81FB816C817D81A985BA858B85F9
:10120A009C850895A985BA858B859C850895109635
:10121A0039F08DEC9AE00197F1F7A8951197C9F783
:10122A00089530976040704009F07058089555232A
:10123A0042F4503811F4E0FF04C03196691F791F57
:10124A006BF050E8572711F45F93CFC05F3F31F03E
:10125A00660F000C57956795752F08955F930020C8
:10126A000AF0CFC0C8C050E8192E1522880F991F5E
:10127A009527550F879550E8072E0522660F771F89
:10128A007527550F67950895689401C0E8945F9390
:10129A00F2DF703818F07F3F08F4A7C056E1571BF9
:1012AA00AAF4519558300EF4593030F0EFEFFFEFB1
:1012BA006FEF7FE777F91AC077275523B9F0EE0F5A
:1012CA00FF1F661F771F5A95D1F710C0772758302E
:1012DA0028F0EF2FF62F672F5850F9CF552331F00A
:1012EA0076956795F795E7955A95D1F700200AF410
:1012FA004ED15F910895689401C0E8943097604098
:10130A007040B1F0002426F0772312F400943FD104
:10131A00172E7EE1112032F07A95EE0FFF1F661F1D
:10132A00111CF9CFEF2FF62F612D5F938ADF5F91A2
:10133A0008954F93AF01FD01DA01AB01BC01CA0167
:10134A00402D012C142E4F910895EA0FFB1F681FA0
:10135A000895E095F0956095EF5FFF4F6F4F089500
:10136A005F9381DF903871F150E8152604C05F93CE
:10137A007ADF903839F1703821F1572F591B2BF148
:10138A0012F4D7DFFACF583118F0AA27BB278827DB
:10139A00583028F0AB2FB82F88275850F9CF55234B
:1013AA0029F08695B795A7955A95D9F7502D5125C5
:1013BA0072F0CBDF38F46795F795E795739513F4D8
:1013CA0020C0B7DF3EDF5F910895D8F7FBCFEA1B55
:1013DA00FB0B680B51F010F40094BBDF662392F309
:1013EA00EE0FFF1F661F7A95CBF7EE27FF276627BA
:1013FA0077275F910895EFEFFFEF6FE77FEF5F9138
:10140A000895EFEFFFEF6FE77FE75F9108955F932E
:10141A002ADF703851F3903841F301240894791F78
:10142A0023F41CF300203AF3ECCF0F921F932F936F
:10143A003F934F93112722279927689FA0018F9FD7
:10144A00302D410D591F6B9F300D411D591F8E9F25
:10145A0027D0BF9F25D06A9F23D0BE9F1DD0AF9FA4
:10146A001BD0AE9F110D291F391F491F591FE32F8A
:10147A00F42F652F522F4F913F912F911F910F906B
:10148A0066232AF0550FEE1FFF1F661F02C07395D1
:10149A004BF2CDDE5F910895100D211D391F02C058
:1014AA00200D311D491F591F08955F93DCDE7038E6
:1014BA0021F411200AF49FCFA4CF903809F495CFD4
:1014CA0001240894970B1BF4D4F30020F3CF792F4F
:1014DA001F932F933F934F931124112722273327CA
:1014EA004427552790E2AE17BF078607410730F019
:1014FA00AE1BBF0B860B410B089401C08894551F85
:10150A00221F331F111CAA1FBB1F881F441F9A9535
:10151A0051F7F901612D4F913F912F911F91662348
:10152A0032F0550FEE1FFF1F661F7A9543F27FDEDA
:10153A005F91089599239AF0772342F0971748F01C
:10154A0029F4AE17BF07860720F031F098948894E3
:10155A000895989408940895189488940895772380
:10156A00C2F7971798F3A9F7EA17FB07680788F3F2
:10157A0099F3ECCF0024AF0DB01D0895AE1BBF0B3D
:10158A00860B970B0895F195E195F0400895F09533
:10159A0060957095E195FF4F6F4F7F4F0895FE2F2D
:1015AA00FF0FFF0B6F2F7F2F08956F2F660F660BAC
:1015BA00762F0895002498E0AA0F001C0E1A10F442
:1015CA000E0E01C0A1609A95B9F7EA2FA02D0895D1
:1015DA0051D0F0DF0EF4E19508950024112490E132
:1015EA00AA0FBB1F001C111C0E1A1F0A18F40E0E9C
:1015FA001F1E01C0A1609A9599F7FD01D0010895B7
:10160A0045D0EBDF0EF4BFDF08953F934F935F930E
:10161A00002411244427552730E2AA0FBB1F881F34
:10162A00991F001C111C441F551F0E1A1F0A460B36
:10163A00570B28F40E0E1F1E461F571F01C0A1602C
:10164A003A9559F7FD01BC01D001CA015F914F914A
:10165A003F910895E894A7FF02C0A1956894E7FD19
:10166A00E195A8DFEA2F0EF4E1950895CEDFFD019A
:10167A00BC010895E894E7FF02C0E1956894A7FFCA
:10168A0004C0A19500F8039400FA0895E894F7FFBE
:10169A0002C079DF6894B7FF06C0A095B09511968D
:1016AA0000F8039400FA0895ED91FC9111970895BA
:1016BA00ED91FD916D917C9113970895ED91FD91B6
:1016CA006D917D9108957E936E93FE93EE930895A6
:1016DA00E881F9816A817B810895A881B9818A812B
:1016EA009B810895E883F9836A837B8308957A93BB
:1016FA006A93FA93EA9308959A938A93BA93AA9368
:10170A000895182E862F612D192E972F712D1B2EB5
:10171A00BF2FF12D1A2EAE2FE12D0895309760407C
:10172A00704008955A934A933A932A931A930A93C4
:10173A0008955D814C813B812A8119810881089530
:00000001FF
